:100000000C9463000C948B000C948B000C948B006C
:100010000C948B000C948B000C948B000C948B0034
:100020000C948B000C947F050C948B000C948B002B
:100030000C948B000C948B000C948B000C948B0014
:100040000C94DD040C948B000C944D050C94270546
:100050000C948B000C948B000C948B000C948B00F4
:100060000C948B000C948B000000000024002700EF
:100070002A0000000000250028002B0000000000DE
:1000800023002600290004040404040404040202DA
:100090000202020203030303030301020408102007
:1000A0004080010204081020010204081020000012
:1000B0000008000201000003040700000000000027
:1000C0000000E505BB0711241FBECFEFD8E0DEBF5F
:1000D000CDBF21E0AEE1B1E001C01D92A23EB2076A
:1000E000E1F711E0A0E0B1E0E0E1F8E102C0059045
:1000F0000D92AE31B107D9F710E0C2E6D0E004C0EE
:100100002197FE010E94F909C136D107C9F70E9463
:1001100059060C94FB0B0C940000833081F028F4FA
:10012000813099F08230A1F008958730A9F08830AD
:10013000B9F08430D1F4809180008F7D03C080912C
:1001400080008F7780938000089584B58F7702C0F8
:1001500084B58F7D84BD08958091B0008F7703C0F2
:100160008091B0008F7D8093B0000895CF93DF938E
:10017000282F30E0F901E255FF4F8491F901E6564E
:10018000FF4FD491F901EA57FF4FC491CC2391F06E
:1001900081110E948D00EC2FF0E0EE0FFF1FE4585C
:1001A000FF4FA591B491EC91ED2381E090E021F413
:1001B00080E002C080E090E0DF91CF9108951F932E
:1001C000CF93DF93282F30E0F901E255FF4F849160
:1001D000F901E656FF4FD491F901EA57FF4FC49158
:1001E000CC23C1F0162F81110E948D00EC2FF0E07E
:1001F000EE0FFF1FEE58FF4FA591B4919FB7F894F3
:10020000111104C08C91D095D82302C0EC91DE2B43
:10021000DC939FBFDF91CF911F910895CF93DF9320
:1002200090E0FC01E656FF4F2491FC01EA57FF4F96
:100230008491882361F190E0880F991FFC01E859AF
:10024000FF4FC591D491FC01EE58FF4FA591B49199
:10025000611109C09FB7F894888120958223888313
:10026000EC912E230BC0623061F49FB7F894888123
:10027000322F309583238883EC912E2B2C939FBFB4
:1002800006C08FB7F894E8812E2B28838FBFDF91AB
:10029000CF9108951F93CF93DF93182FEB0161E067
:1002A0000E940E01209711F460E004C0CF3FD105F9
:1002B00039F461E0812FDF91CF911F910C94DF0021
:1002C000E12FF0E0E255FF4FE491E330F9F048F41C
:1002D000E130B9F0E230A1F584B5806284BDC8BDDB
:1002E00034C0E730E9F0E83019F1E43049F58091A5
:1002F0008000806280938000D0938B00C0938A003E
:1003000024C084B5806884BDC7BD1FC080918000B3
:10031000806880938000D0938900C093880015C0C6
:100320008091B00080688093B000C093B3000DC08E
:100330008091B00080628093B000C093B40005C08B
:10034000C038D1050CF0B5CFAFCFDF91CF911F9161
:1003500008958E3008F08E508770806480937C0002
:1003600080917A00806480937A0080917A0086FD83
:10037000FCCF809178002091790090E0922B089535
:10038000CF92DF92EF92FF920F931F93CF93DF9361
:100390006C017A018B01C0E0D0E0CE15DF0581F061
:1003A000D8016D918D01D601ED91FC910190F08104
:1003B000E02DC6010995892B11F02196EECF7E0123
:1003C000C701DF91CF911F910F91FF90EF90DF90C8
:1003D000CF900895089580E090E00895FC01538D3A
:1003E000448D252F30E0842F90E0821B930B54170F
:1003F00010F0CF96089501970895FC01918D828D9C
:10040000981761F0828DDF01A80FB11D5D968C9168
:10041000928D9F5F9F73928F90E008958FEF9FEF73
:100420000895FC01918D828D981731F0828DE80F2F
:10043000F11D858D90E008958FEF9FEF0895FC01E9
:10044000918D228D892F90E0805C9F4F821B9109B6
:100450008F73992708958BE391E00E941F0221E09A
:10046000892B09F420E0822F0895FC01848DDF019F
:10047000A80FB11DA35ABF4F2C91848D90E0019617
:100480008F739927848FA689B7892C93A089B18906
:100490008C91837080648C93938D848D981306C0A7
:1004A0000288F389E02D80818F7D80830895EF920B
:1004B000FF920F931F93CF93DF93EC0181E0888F1E
:1004C0009B8D8C8D981305C0E889F989808185FD05
:1004D00026C0F62E0B8D10E00F5F1F4F0F731127F4
:1004E000E02E8C8DE8120CC00FB607FCFACFE8891D
:1004F000F989808185FFF5CFCE010E943502F1CFC9
:100500008B8DFE01E80FF11DE35AFF4FF0829FB77C
:10051000F8940B8FEA89FB89808180620AC09FB7BB
:10052000F894EE89FF896083E889F9898081837076
:10053000806480839FBF81E090E0DF91CF911F9125
:100540000F91FF90EF900895CF93DF93EC01888D8A
:100550008823C9F0EA89FB89808185FD05C0A889C7
:10056000B9898C9186FD0FC00FB607FCF5CF80814D
:1005700085FFF2CFA889B9898C9185FFEDCFCE0197
:100580000E943502E7CFDF91CF91089510922001AC
:1005900010922101109222011092230110921F014A
:1005A00080912A0190912B018093B200E0E7F0E066
:1005B000808181608083089580913101882361F07A
:1005C00010922C0160E070E089E00E944A01809165
:1005D00070008E7F809370000895CF93C82F0E9483
:1005E000B60061E0892B09F060E08C2FCF910C946C
:1005F000DF008F929F92AF92BF920F931F93CF9382
:10060000DF93CDB7DEB7A1970FB6F894DEBF0FBE6C
:10061000CDBF19A2423008F44AE08E010F5D1F4F92
:10062000842E912CA12CB12CA50194010E94D709F4
:10063000E62FB901CA0101501109EA3014F4E05D56
:1006400001C0E95CD801EC93232B242B252B61F707
:100650000115110571F0F80101900020E9F73197BB
:10066000AF01401B510BB8018BE391E00E94C00128
:1006700002C080E090E0A1960FB6F894DEBF0FBEF6
:10068000CDBFDF91CF911F910F91BF90AF909F9001
:100690008F900895CF93DF93EC018091D8019091D2
:1006A000D901009739F02091DA013091DB012C1744
:1006B0003D07B8F4BE016F5F7F4F0E94200B00978B
:1006C00091F09093D9018093D801D093DB01C0932E
:1006D000DA012091DC013091DD01232B11F4FC01C2
:1006E000108281E001C080E0DF91CF910895CF9228
:1006F000DF92EF92FF92CF93DF936C01990FEE0898
:10070000FF08F7FE13C06DE28BE391E00E945702F1
:10071000EC0166277727CB016C197D098E099F09AB
:100720004AE00E94F902C80FD91F06C04AE0C7017B
:10073000B6010E94F902EC0142E050E06BE171E089
:100740008BE391E00E94C0018C0F9D1FDF91CF9140
:10075000FF90EF90DF90CF9008950E94E60BEF920C
:10076000FF920F931F93CF93DF9300D0CDB7DEB7E7
:1007700001E08BE391E00E941F02892B09F40EC176
:100780008BE391E00E94FD01182F809131018823B5
:1007900081F380911E01882309F46DC0133209F0A2
:1007A00049C010921E018091D8019091D901009703
:1007B00019F00E94C10703C060E070E0CB010E9405
:1007C000FF0720E030EC4FE754E40E943A0820E0B5
:1007D00030E04AEF53E40E942F090E94A109709370
:1007E00002016093010180E090E00E944A032091A1
:1007F000D8013091D901811113C02115310519F0AB
:10080000C9010E94970A1092D9011092D801109242
:10081000DD011092DC011092DB011092DA01A9CF08
:100820001092DD011092DC016DE171E0C9010E94BE
:10083000F40B9FCF19831A82E090DC01F090DD0168
:100840008FEFE81AF80AC7010E944A03882399F03B
:100850002091D8013091D9018091DC019091DD0186
:10086000BE016F5F7F4F820F931F0E94F40BF092C7
:10087000DD01E092DC01103509F461C074F4173435
:1008800009F46FC024F4113409F451C072CF193443
:1008900009F443C01F34C9F16CCF153569F12CF54B
:1008A000133509F475C0143509F063CF8EE00E944A
:1008B000A901BC01990F880B990B0E94FF0720E04A
:1008C00030E048EC52E40E943A0820E030E040EA90
:1008D00050E40E943A0820E030EC4FE754E40E94D4
:1008E0002F090E94A109CB0156C01A3559F01337C0
:1008F00009F03FCF80E14DC0809130018027809387
:10090000300137CF00931E0134CF8091300188230E
:1009100009F42FCF8DE090E007C08091300188234B
:1009200009F427CF8CE090E00E94ED0222CF809165
:100930003001882309F41DCF8BE090E0F5CF809142
:100940002F01802780932F01882319F066EE70E035
:1009500004C060912D0170912E018AE00E944A012D
:1009600008CF10910001112311F061E001C060E097
:1009700082E00E94DF0010271093000160E870E021
:1009800089E00E944A0100932C010E94C602F1CE28
:100990008FE00E94A9010E947703EBCE0F900F9089
:1009A000DF91CF911F910F91FF90EF9008950E94DA
:1009B0002B0281110C94AF0308951F920F920FB672
:1009C0000F9211242F933F938F939F93AF93BF93D5
:1009D0008091370190913801A0913901B0913A018D
:1009E0003091360123E0230F2D3720F40196A11D0D
:1009F000B11D05C026E8230F0296A11DB11D20934D
:100A000036018093370190933801A0933901B09358
:100A10003A018091320190913301A0913401B0915B
:100A200035010196A11DB11D8093320190933301D0
:100A3000A0933401B0933501BF91AF919F918F91F5
:100A40003F912F910F900FBE0F901F9018951F92FE
:100A50000F920FB60F9211242F933F934F935F93F2
:100A60006F937F938F939F93AF93BF93EF93FF9376
:100A70008BE391E00E943502FF91EF91BF91AF911E
:100A80009F918F917F916F915F914F913F912F91A6
:100A90000F900FBE0F901F9018951F920F920FB6D8
:100AA0000F9211242F938F939F93EF93FF93E091D5
:100AB0004B01F0914C018081E0915101F091520184
:100AC00082FD12C09081809154018F5F8F732091BD
:100AD0005501821751F0E0915401F0E0E55CFE4FC2
:100AE000958F8093540101C08081FF91EF919F9178
:100AF0008F912F910F900FBE0F901F9018951F92FE
:100B00000F920FB60F9211242F933F934F935F9341
:100B10006F937F938F939F93AF93BF93EF93FF93C5
:100B200080912A0190912B018093B2008091200145
:100B300090912101A0912201B09123010196A11D64
:100B4000B11D8093200190932101A0932201B093C5
:100B50002301409120015091210160912201709167
:100B600023018091260190912701A0912801B09145
:100B70002901481759076A077B07B0F080911F01C8
:100B8000811112C081E080931F0110922001109208
:100B900021011092220110922301E0912401F09191
:100BA0002501099510921F01FF91EF91BF91AF911F
:100BB0009F918F917F916F915F914F913F912F9175
:100BC0000F900FBE0F901F90189510923E0110923B
:100BD0003D0188EE93E0A0E0B0E080933F01909368
:100BE0004001A0934101B09342018DE091E09093C8
:100BF0003C0180933B0185EC90E090934801809309
:100C0000470184EC90E090934A018093490180EC85
:100C100090E090934C0180934B0181EC90E0909395
:100C20004E0180934D0182EC90E0909350018093AF
:100C30004F0186EC90E09093520180935101109205
:100C400054011092550110925601109257011092C2
:100C5000D9011092D8011092DB011092DA011092A2
:100C6000DD011092DC0180E090E00E944A032091B7
:100C7000D8013091D901811113C02115310519F026
:100C8000C9010E94970A1092D9011092D8011092BE
:100C9000DD011092DC011092DB011092DA0108955F
:100CA0001092DD011092DC016DE171E0C9010C943C
:100CB000F40B789484B5826084BD84B5816084BD72
:100CC00085B5826085BD85B5816085BD80916E00EA
:100CD000816080936E00109281008091810082601B
:100CE0008093810080918100816080938100809158
:100CF00080008160809380008091B1008460809347
:100D0000B1008091B00081608093B00080917A0042
:100D1000846080937A0080917A00826080937A0068
:100D200080917A00816080937A0080917A00806857
:100D300080937A001092C10061E08DE00E940E0164
:100D400061E08CE00E940E0161E08BE00E940E01E8
:100D500061E089E00E940E0161E08AE00E940E01DC
:100D600061E088E00E940E0161E088E00E940E01CF
:100D700061E082E00E940E0160E087E00E940E01C7
:100D800060E086E00E940E0160E085E00E940E01B6
:100D900061E087E00E94DF0061E086E00E94DF0002
:100DA00061E085E00E94DF00E0914B01F0914C0191
:100DB00082E08083E0914701F09148011082E09148
:100DC0004901F0914A018FEC808310925301E09128
:100DD0004F01F091500186E08083E0914D01F09148
:100DE0004E01808180618083E0914D01F0914E0140
:100DF000808188608083E0914D01F0914E01808177
:100E000080688083E0914D01F0914E0180818F7D5B
:100E1000808388EC90E00E944A03809170008E7F6E
:100E2000809370008091B0008C7F8093B00080919F
:100E3000B100877F8093B1008091B6008F7D809351
:100E4000B600809170008D7F809370008091B1001A
:100E500084608093B1008091B1008C7F8093B10059
:100E600086E090E090932B0180932A0188EE93E036
:100E7000A0E0B0E08093260190932701A093280181
:100E8000B09329018CED92E0909325018093240189
:100E90000E94C602C1E000E410E080E8E82EF12CD8
:100EA00087E00E94B600892B31F4C093310161E0E4
:100EB00088E00E94DF0080913101882309F454C04A
:100EC0008091300181112EC086E00E94B600892BEE
:100ED00041F48FE00E94A9018115924014F461E071
:100EE00001C060E08DE00E94DF0085E00E94B60056
:100EF000892BE9F580E10E94A90181159240BCF59A
:100F000061E08CE00E94DF008EE00E94A901209148
:100F1000010130910201281739075CF561E08BE08F
:100F20000E94DF0080912F0181111EC060912D0170
:100F300070912E018AE00E944A0180912C01882341
:100F400029F0F0922E01E0922D010EC085E00E9462
:100F5000B600892B29F410932E0100932D0104C0B3
:100F600010922E0110922D010E94D70499CF60E0BB
:100F7000C8CF60E0D4CF8091D8019091D9010C9472
:100F8000970A1F93FC0199278827BC01E8941191C7
:100F90001032E9F3193010F01E30C8F31B3251F053
:100FA0001D3249F4689406C00E94E807610F711D64
:100FB000811D911D119110531A30B0F33EF490959C
:100FC0008095709561957F4F8F4F9F4F1F9108952A
:100FD000592F482F372F262F660F771F881F991FED
:100FE000660F771F881F991F620F731F841F951F3D
:100FF000660F771F881F991F0895E89409C097FB13
:101000003EF490958095709561957F4F8F4F9F4FDF
:101010009923A9F0F92F96E9BB279395F695879523
:1010200077956795B795F111F8CFFAF4BB0F11F4E6
:1010300060FF1BC06F5F7F4F8F4F9F4F16C088238D
:1010400011F096E911C0772321F09EE8872F762FC3
:1010500005C0662371F096E8862F70E060E02AF004
:101060009A95660F771F881FDAF7880F96958795F0
:1010700097F908950E944D080C94BE080E94B0088C
:1010800038F00E94B70820F0952311F00C94A708BF
:101090000C94AD0811240C94F2080E94CF0870F350
:1010A000959FC1F3950F50E0551F629FF001729F0D
:1010B000BB27F00DB11D639FAA27F00DB11DAA1F1C
:1010C000649F6627B00DA11D661F829F2227B00D69
:1010D000A11D621F739FB00DA11D621F839FA00DF4
:1010E000611D221F749F3327A00D611D231F849F44
:1010F000600D211D822F762F6A2F11249F5750409B
:101100009AF0F1F088234AF0EE0FFF1FBB1F661F15
:10111000771F881F91505040A9F79E3F510580F0DE
:101120000C94A7080C94F2085F3FE4F3983ED4F3C4
:10113000869577956795B795F795E7959F5FC1F782
:10114000FE2B880F911D9695879597F9089597F92D
:101150009F6780E870E060E008959FEF80EC08955D
:1011600000240A9416161706180609060895002486
:101170000A9412161306140605060895092E039400
:10118000000C11F4882352F0BB0F40F4BF2B11F474
:1011900060FF04C06F5F7F4F8F4F9F4F089557FDD3
:1011A0009058440F551F59F05F3F71F04795880FD5
:1011B00097FB991F61F09F3F79F08795089512166C
:1011C00013061406551FF2CF4695F1DF08C0161618
:1011D00017061806991FF1CF8695710561050894C9
:1011E0000895E894BB2766277727CB0197F90895E0
:1011F0002F923F924F925F926F927F928F929F9227
:10120000AF92BF92CF92DF92EF92FF920F931F9314
:10121000CF93DF93CDB7DEB7CA1BDB0B0FB6F894C5
:10122000DEBF0FBECDBF09942A88398848885F8405
:101230006E847D848C849B84AA84B984C884DF8076
:10124000EE80FD800C811B81AA81B981CE0FD11D5A
:101250000FB6F894DEBF0FBECDBFED0108950E941A
:1012600043090C94BE080E94B70858F00E94B008C9
:1012700040F029F45F3F29F00C94A70851110C9419
:10128000F2080C94AD080E94CF0868F39923B1F3DB
:10129000552391F3951B550BBB27AA27621773079C
:1012A000840738F09F5F5F4F220F331F441FAA1F30
:1012B000A9F335D00E2E3AF0E0E832D091505040EC
:1012C000E695001CCAF72BD0FE2F29D0660F771F9A
:1012D000881FBB1F261737074807AB07B0E809F080
:1012E000BB0B802DBF01FF2793585F4F3AF09E3F05
:1012F000510578F00C94A7080C94F2085F3FE4F3D2
:10130000983ED4F3869577956795B795F7959F5F47
:10131000C9F7880F911D9695879597F90895E1E093
:10132000660F771F881FBB1F621773078407BA07F2
:1013300020F0621B730B840BBA0BEE1F88F7E0954D
:1013400008950E94A8096894B1110C94F2080895B8
:101350000E94D70888F09F5798F0B92F9927B75166
:10136000B0F0E1F0660F771F881F991F1AF0BA9549
:10137000C9F714C0B13091F00E94F108B1E00895AE
:101380000C94F108672F782F8827B85F39F0B93FA0
:10139000CCF3869577956795B395D9F73EF49095FC
:1013A0008095709561957F4F8F4F9F4F0895A1E273
:1013B0001A2EAA1BBB1BFD010DC0AA1FBB1FEE1FCF
:1013C000FF1FA217B307E407F50720F0A21BB30B1A
:1013D000E40BF50B661F771F881F991F1A9469F796
:1013E00060957095809590959B01AC01BD01CF01F2
:1013F0000895EE0FFF1F0590F491E02D09940F93CF
:101400001F93CF93DF938230910510F482E090E038
:10141000E091E001F091E10120E030E0A0E0B0E0F7
:10142000309719F140815181028113814817590782
:10143000C8F08417950769F4109731F012960C9351
:10144000129713961C9327C00093E0011093E101BB
:1014500022C02115310519F04217530718F49A01DB
:10146000BD01EF01DF01F801DBCF21153105F9F0F6
:10147000281B390B2430310580F48A819B8161154A
:10148000710521F0FB019383828304C09093E101F5
:101490008093E001FE01329644C0FE01E20FF31F8B
:1014A0008193919322503109398328833AC0209146
:1014B000DE013091DF01232B41F4209105013091B1
:1014C00006013093DF012093DE012091030130916A
:1014D00004012115310541F42DB73EB740910701B4
:1014E00050910801241B350BE091DE01F091DF01E2
:1014F000E217F307A0F42E1B3F0B2817390778F0EB
:10150000AC014E5F5F4F2417350748F04E0F5F1F49
:101510005093DF014093DE018193919302C0E0E09C
:10152000F0E0CF01DF91CF911F910F910895CF93FC
:10153000DF93009709F481C0FC0132971382128275
:10154000A091E001B091E101109781F420813181F7
:10155000820F931F2091DE013091DF012817390798
:1015600051F5F093DF01E093DE0167C0ED0120E06B
:1015700030E0CE17DF0740F44A815B819E014115C0
:101580005105F1F0EA01F5CFD383C2834081518147
:10159000840F951FC817D90759F488819981840F42
:1015A000951F0296918380838A819B819383828396
:1015B0002115310529F4F093E101E093E0013DC0EC
:1015C000E901FB83EA8349915991C40FD51FEC17B8
:1015D000FD0761F480819181840F951F0296E901D6
:1015E00099838883828193819B838A83E0E0F0E002
:1015F00012968D919C911397009719F0FD01DC01D3
:10160000F7CF8D919C9111979D012E5F3F4F820FD7
:10161000931F2091DE013091DF012817390769F40B
:10162000309729F41092E1011092E00102C0138278
:101630001282B093DF01A093DE01DF91CF91089574
:10164000A0E0B0E0E6E2FBE00C94FC08EC010097BF
:1016500021F4CB010E94FF09B4C0FC01E60FF71F83
:101660009C0122503109E217F30708F4A8C0D90100
:101670000D911C91119706171707B0F00530110551
:1016800008F49BC0C80104978617970708F495C013
:1016900002501109061B170B019311936D937C9354
:1016A000CF010E94970A89C05B01A01AB10A4C01C0
:1016B000800E911EA091E001B091E101612C712C8E
:1016C000E12CF12C109709F446C08D919C91119753
:1016D000A815B905B1F56C0142E0C40ED11CCA14BD
:1016E000DB0478F14C018A189B08640142E0C40EC7
:1016F000D11C1296BC9012971396AC91B5E0CB1604
:10170000D10440F0B282A38391828082D9016D938B
:101710007C9309C00E5F1F4F800F911FF9019183C9
:101720008083EB2DFA2FE114F10431F0D7011396E9
:10173000FC93EE93129741C0F093E101E093E00136
:101740003CC06816790608F43C017D0112960D90A4
:10175000BC91A02DB7CF8091DE019091DF0188165A
:101760009906E1F466167706C8F48091030190911A
:101770000401009741F48DB79EB740910701509145
:101780000801841B950BE817F907C8F4F093DF01F3
:10179000E093DE01F901718360830FC0CB010E94E9
:1017A000FF097C01009759F0A801BE010E94EB0BD4
:1017B000CE010E94970AC70104C0CE0102C080E09A
:1017C00090E0CDB7DEB7EEE00C94180981E090E030
:1017D000F8940C94FB0BFB01DC0102C001900D920C
:1017E00041505040D8F70895FB01DC0101900D9263
:1017F0000020E1F7089510E0C2E6D0E004C0FE0149
:101800000E94F9092196C336D107C9F7F894FFCF92
:101810000132000000E2018000000000005702C019
:0E18200001EE01A4021F02FD0111020D0A00DB
:00000001FF
