:100000000C9463000C948B000C948B000C948B006C
:100010000C948B000C948B000C948B000C948B0034
:100020000C948B000C9486050C948B000C948B0024
:100030000C948B000C948B000C948B000C948B0014
:100040000C94E4040C948B000C9454050C942E0531
:100050000C948B000C948B000C948B000C948B00F4
:100060000C948B000C948B000000000024002700EF
:100070002A0000000000250028002B0000000000DE
:1000800023002600290004040404040404040202DA
:100090000202020203030303030301020408102007
:1000A0004080010204081020010204081020000012
:1000B0000008000201000003040700000000000027
:1000C0000000EC05AC0711241FBECFEFD8E0DEBF67
:1000D000CDBF21E0A4E2B1E001C01D92A73EB2076E
:1000E000E1F711E0A0E0B1E0E2EFF7E102C0059036
:1000F0000D92A432B107D9F710E0C2E6D0E004C0F7
:100100002197FE010E94EA09C136D107C9F70E9472
:1001100060060C94EC0B0C940000833081F028F402
:10012000813099F08230A1F008958730A9F08830AD
:10013000B9F08430D1F4809180008F7D03C080912C
:1001400080008F7780938000089584B58F7702C0F8
:1001500084B58F7D84BD08958091B0008F7703C0F2
:100160008091B0008F7D8093B0000895CF93DF938E
:10017000282F30E0F901E255FF4F8491F901E6564E
:10018000FF4FD491F901EA57FF4FC491CC2391F06E
:1001900081110E948D00EC2FF0E0EE0FFF1FE4585C
:1001A000FF4FA591B491EC91ED2381E090E021F413
:1001B00080E002C080E090E0DF91CF9108951F932E
:1001C000CF93DF93282F30E0F901E255FF4F849160
:1001D000F901E656FF4FD491F901EA57FF4FC49158
:1001E000CC23C1F0162F81110E948D00EC2FF0E07E
:1001F000EE0FFF1FEE58FF4FA591B4919FB7F894F3
:10020000111104C08C91D095D82302C0EC91DE2B43
:10021000DC939FBFDF91CF911F910895CF93DF9320
:1002200090E0FC01E656FF4F2491FC01EA57FF4F96
:100230008491882361F190E0880F991FFC01E859AF
:10024000FF4FC591D491FC01EE58FF4FA591B49199
:10025000611109C09FB7F894888120958223888313
:10026000EC912E230BC0623061F49FB7F894888123
:10027000322F309583238883EC912E2B2C939FBFB4
:1002800006C08FB7F894E8812E2B28838FBFDF91AB
:10029000CF9108951F93CF93DF93182FEB0161E067
:1002A0000E940E01209711F460E004C0CF3FD105F9
:1002B00039F461E0812FDF91CF911F910C94DF0021
:1002C000E12FF0E0E255FF4FE491E330F9F048F41C
:1002D000E130B9F0E230A1F584B5806284BDC8BDDB
:1002E00034C0E730E9F0E83019F1E43049F58091A5
:1002F0008000806280938000D0938B00C0938A003E
:1003000024C084B5806884BDC7BD1FC080918000B3
:10031000806880938000D0938900C093880015C0C6
:100320008091B00080688093B000C093B3000DC08E
:100330008091B00080628093B000C093B40005C08B
:10034000C038D1050CF0B5CFAFCFDF91CF911F9161
:1003500008958E3008F08E508770806480937C0002
:1003600080917A00806480937A0080917A0086FD83
:10037000FCCF809178002091790090E0922B089535
:10038000CF92DF92EF92FF920F931F93CF93DF9361
:100390006C017A018B01C0E0D0E0CE15DF0581F061
:1003A000D8016D918D01D601ED91FC910190F08104
:1003B000E02DC6010995892B11F02196EECF7E0123
:1003C000C701DF91CF911F910F91FF90EF90DF90C8
:1003D000CF900895089580E090E00895FC01538D3A
:1003E000448D252F30E0842F90E0821B930B54170F
:1003F00010F0CF96089501970895FC01918D828D9C
:10040000981761F0828DDF01A80FB11D5D968C9168
:10041000928D9F5F9F73928F90E008958FEF9FEF73
:100420000895FC01918D828D981731F0828DE80F2F
:10043000F11D858D90E008958FEF9FEF0895FC01E9
:10044000918D228D892F90E0805C9F4F821B9109B6
:100450008F739927089580E491E00E941F0221E0A4
:10046000892B09F420E0822F0895FC01848DDF019F
:10047000A80FB11DA35ABF4F2C91848D90E0019617
:100480008F739927848FA689B7892C93A089B18906
:100490008C91837080648C93938D848D981306C0A7
:1004A0000288F389E02D80818F7D80830895EF920B
:1004B000FF920F931F93CF93DF93EC0181E0888F1E
:1004C0009B8D8C8D981305C0E889F989808185FD05
:1004D00026C0F62E0B8D10E00F5F1F4F0F731127F4
:1004E000E02E8C8DE8120CC00FB607FCFACFE8891D
:1004F000F989808185FFF5CFCE010E943502F1CFC9
:100500008B8DFE01E80FF11DE35AFF4FF0829FB77C
:10051000F8940B8FEA89FB89808180620AC09FB7BB
:10052000F894EE89FF896083E889F9898081837076
:10053000806480839FBF81E090E0DF91CF911F9125
:100540000F91FF90EF900895CF93DF93EC01888D8A
:100550008823C9F0EA89FB89808185FD05C0A889C7
:10056000B9898C9186FD0FC00FB607FCF5CF80814D
:1005700085FFF2CFA889B9898C9185FFEDCFCE0197
:100580000E943502E7CFDF91CF91089510922601A6
:100590001092270110922801109229011092250132
:1005A00080913001909131018093B200E0E7F0E05A
:1005B00080818160808308951092320160E070E054
:1005C00089E00E944A01E0E7F0E080818E7F80832D
:1005D0000895CF93C82F0E94B60061E0892B09F0DF
:1005E00060E08C2FCF910C94DF00009769F0FC0144
:1005F00001900020E9F73197AF01481B590BBC016E
:1006000080E491E00C94C00180E090E00895CF93E5
:10061000DF93EC018091DD019091DE01009739F0CC
:100620002091DF013091E0012C173D07B8F4BE01A5
:100630006F5F7F4F0E94110B009791F09093DE0146
:100640008093DD01D093E001C093DF012091E101AF
:100650003091E201232B11F4FC01108281E001C0F2
:1006600080E0DF91CF9108958F929F92AF92BF92D9
:10067000CF92DF92EF92FF920F931F93CF93DF936E
:10068000CDB7DEB7A1970FB6F894DEBF0FBECDBFD2
:100690006C01990FEE08FF08F7FE2BC06DE280E4B5
:1006A00091E00E9457028C0122273327A9012C19BF
:1006B0003D094E095F0919A2CE0181967C019AE09D
:1006C000892E912CA12CB12CCA01B901A50194014C
:1006D0000E94C809605DF70162937F012115310511
:1006E0004105510589F7CF010E94F502080F191F36
:1006F0001EC0A701960119A28E010F5D1F4F8AE04F
:10070000C82ED12CE12CF12CCA01B901A701960108
:100710000E94C809605DF80162938F0121153105BF
:100720004105510589F7CF010E94F5028C018BE14B
:1007300091E00E94F502800F911FA1960FB6F894E8
:10074000DEBF0FBECDBFDF91CF911F910F91FF9004
:10075000EF90DF90CF90BF90AF909F908F900895D3
:100760000E94D70BEF92FF920F931F93CF93DF93CB
:1007700000D0CDB7DEB701E080E491E00E941F0217
:10078000892B09F412C180E491E00E94FD01182F29
:1007900080912401882309F46DC0133209F049C007
:1007A000109224018091DD019091DE01009719F0F3
:1007B0000E94B20703C060E070E0CB010E94F00726
:1007C00020E030EC4FE754E40E942B0820E030E0BA
:1007D0004AEF53E40E9420090E949209709302019B
:1007E0006093010180E090E00E9407032091DD0109
:1007F0003091DE01811113C02115310519F0C901B5
:100800000E94880A1092DE011092DD011092E2012E
:100810001092E1011092E0011092DF01ADCF109231
:10082000E2011092E1016DE171E0C9010E94E50B66
:10083000A3CF19831A82E090E101F090E2018FEFDB
:10084000E81AF80AC7010E940703882399F020914B
:10085000DD013091DE018091E1019091E201BE0164
:100860006F5F7F4F820F931F0E94E50BF092E201B2
:10087000E092E101103509F461C074F4173409F411
:100880006FC024F4113409F451C076CF193409F43F
:1008900043C01F34C9F170CF153569F12CF51335FC
:1008A00009F475C0143509F067CF8EE00E94A901E4
:1008B000BC01990F880B990B0E94F00720E030E0F3
:1008C00048EC52E40E942B0820E030E040EA50E47B
:1008D0000E942B0820E030EC4FE754E40E942009EE
:1008E0000E949209CB015EC01A3559F0133709F006
:1008F00043CF80E155C08091360180278093360137
:100900003BCF0093240138CF80913601882309F42E
:1009100033CF8DE090E007C080913601882309F441
:100920002BCF8CE090E00E94E90226CF8091360127
:10093000882309F421CF8BE090E0F5CF8091350139
:10094000802780933501882319F066EE70E004C09B
:1009500060913301709134018AE00E944A010CCF0A
:1009600010910001112311F061E001C060E082E00C
:100970000E94DF0010271093000160E870E089E01A
:100980000E944A01009332010E94C602F5CE8EE118
:1009900091E00E94F5028BE191E00E94F5028FE068
:1009A0000E94A9010E943403E7CE0F900F90DF91BF
:1009B000CF911F910F91FF90EF9008950E942B020D
:1009C00081110C94B20308951F920F920FB60F92EB
:1009D00011242F933F938F939F93AF93BF93809155
:1009E0003C0190913D01A0913E01B0913F013091B9
:1009F0003B0123E0230F2D3720F40196A11DB11DEB
:100A000005C026E8230F0296A11DB11D20933B01CE
:100A100080933C0190933D01A0933E01B0933F0130
:100A20008091370190913801A0913901B0913A013C
:100A30000196A11DB11D8093370190933801A093B9
:100A40003901B0933A01BF91AF919F918F913F913E
:100A50002F910F900FBE0F901F9018951F920F921D
:100A60000FB60F9211242F933F934F935F936F9381
:100A70007F938F939F93AF93BF93EF93FF9380E404
:100A800091E00E943502FF91EF91BF91AF919F914C
:100A90008F917F916F915F914F913F912F910F9027
:100AA0000FBE0F901F9018951F920F920FB60F92C6
:100AB00011242F938F939F93EF93FF93E091500115
:100AC000F09151018081E0915601F091570182FD32
:100AD00012C09081809159018F5F8F7320915A01CC
:100AE000821751F0E0915901F0E0E05CFE4F958FE4
:100AF0008093590101C08081FF91EF919F918F9167
:100B00002F910F900FBE0F901F9018951F920F926C
:100B10000FB60F9211242F933F934F935F936F93D0
:100B20007F938F939F93AF93BF93EF93FF938091A6
:100B30003001909131018093B20080912601909113
:100B40002701A0912801B09129010196A11DB11D95
:100B50008093260190932701A0932801B093290147
:100B6000409126015091270160912801709129013F
:100B700080912C0190912D01A0912E01B0912F0117
:100B8000481759076A077B07B0F08091250181114A
:100B900012C081E080932501109226011092270156
:100BA0001092280110922901E0912A01F0912B0165
:100BB000099510922501FF91EF91BF91AF919F91FF
:100BC0008F917F916F915F914F913F912F910F90F6
:100BD0000FBE0F901F901895109243011092420182
:100BE00088EE93E0A0E0B0E080934401909345014B
:100BF000A0934601B09347018DE091E090934101AD
:100C00008093400185EC90E090934D0180934C01DE
:100C100084EC90E090934F0180934E0180EC90E043
:100C2000909351018093500181EC90E09093530197
:100C30008093520182EC90E090935501809354018F
:100C400086EC90E0909357018093560110925901E1
:100C500010925A0110925B0110925C011092DE0119
:100C60001092DD011092E0011092DF011092E2017A
:100C70001092E10180E090E00E9407032091DD01E5
:100C80003091DE01811113C02115310519F0C90120
:100C90000E94880A1092DE011092DD011092E2019A
:100CA0001092E1011092E0011092DF01089510927C
:100CB000E2011092E1016DE171E0C9010C94E50BD4
:100CC000789484B5826084BD84B5816084BD85B527
:100CD000826085BD85B5816085BD80916E00816033
:100CE00080936E00109281008091810082608093D9
:100CF00081008091810081608093810080918000DB
:100D00008160809380008091B10084608093B10005
:100D10008091B00081608093B00080917A008460FF
:100D200080937A0080917A00826080937A0080912B
:100D30007A00816080937A0080917A008068809345
:100D40007A001092C10061E08DE00E940E0161E026
:100D50008CE00E940E0161E08BE00E940E0161E0D8
:100D600089E00E940E0161E08AE00E940E0161E0CC
:100D700088E00E940E0161E088E00E940E0161E0BF
:100D800082E00E940E0160E087E00E940E0160E0B8
:100D900086E00E940E0160E085E00E940E0161E0A5
:100DA00086E00E94DF0061E085E00E94DF00E091C4
:100DB0005001F091510182E08083E0914C01F0916B
:100DC0004D011082E0914E01F0914F018FEC808334
:100DD00010925801E0915401F091550186E0808312
:100DE000E0915201F0915301808180618083E09114
:100DF0005201F0915301808188608083E09152011B
:100E0000F0915301808180688083E0915201F091DC
:100E1000530180818F7D808388EC90E00E940703DE
:100E2000809170008E7F809370008091B0008C7FE5
:100E30008093B0008091B100877F8093B100809152
:100E4000B6008F7D8093B600809170008D7F809377
:100E500070008091B10084608093B1008091B100F6
:100E60008C7F8093B10086E090E090933101809375
:100E7000300188EE93E0A0E0B0E080932C019093E5
:100E80002D01A0932E01B0932F018CED92E0909351
:100E90002B0180932A010E94C602C0E4D0E000E842
:100EA00010E08091360181112EC086E00E94B600CC
:100EB000892B41F48FE00E94A9018115924014F41E
:100EC00061E001C060E08DE00E94DF0085E00E94EB
:100ED000B600892BE9F580E10E94A90181159240B5
:100EE000BCF561E08CE00E94DF008EE00E94A90169
:100EF0002091010130910201281739075CF561E06A
:100F00008BE00E94DF008091350181111EC060914D
:100F10003301709134018AE00E944A0180913201CC
:100F2000882329F010933401009333010EC085E02B
:100F30000E94B600892B29F4D0933401C093330169
:100F400004C010923401109233010E94DE04A9CF34
:100F500060E0C8CF60E0D4CF8091DD019091DE01E8
:100F60000C94880A1F93FC0199278827BC01E894F8
:100F700011911032E9F3193010F01E30C8F31B3212
:100F800051F01D3249F4689406C00E94D907610FE0
:100F9000711D811D911D119110531A30B0F33EF453
:100FA00090958095709561957F4F8F4F9F4F1F91C2
:100FB0000895592F482F372F262F660F771F881F28
:100FC000991F660F771F881F991F620F731F841F59
:100FD000951F660F771F881F991F0895E89409C011
:100FE00097FB3EF490958095709561957F4F8F4F5C
:100FF0009F4F9923A9F0F92F96E9BB279395F69572
:10100000879577956795B795F111F8CFFAF4BB0FEF
:1010100011F460FF1BC06F5F7F4F8F4F9F4F16C053
:10102000882311F096E911C0772321F09EE8872FDD
:10103000762F05C0662371F096E8862F70E060E099
:101040002AF09A95660F771F881FDAF7880F969512
:10105000879597F908950E943E080C94AF080E9466
:10106000A10838F00E94A80820F0952311F00C94F4
:1010700098080C949E0811240C94E3080E94C00860
:1010800070F3959FC1F3950F50E0551F629FF001DB
:10109000729FBB27F00DB11D639FAA27F00DB11DF4
:1010A000AA1F649F6627B00DA11D661F829F22277D
:1010B000B00DA11D621F739FB00DA11D621F839F04
:1010C000A00D611D221F749F3327A00D611D231FDA
:1010D000849F600D211D822F762F6A2F11249F5728
:1010E00050409AF0F1F088234AF0EE0FFF1FBB1F2B
:1010F000661F771F881F91505040A9F79E3F5105EA
:1011000080F00C9498080C94E3085F3FE4F3983E59
:10111000D4F3869577956795B795F795E7959F5F93
:10112000C1F7FE2B880F911D9695879597F9089525
:1011300097F99F6780E870E060E008959FEF80EC8A
:10114000089500240A94161617061806090608952D
:1011500000240A9412161306140605060895092E93
:101160000394000C11F4882352F0BB0F40F4BF2B02
:1011700011F460FF04C06F5F7F4F8F4F9F4F089542
:1011800057FD9058440F551F59F05F3F71F0479538
:10119000880F97FB991F61F09F3F79F0879508951D
:1011A000121613061406551FF2CF4695F1DF08C03C
:1011B000161617061806991FF1CF86957105610559
:1011C00008940895E894BB2766277727CB0197F901
:1011D00008952F923F924F925F926F927F928F92DB
:1011E0009F92AF92BF92CF92DF92EF92FF920F93B6
:1011F0001F93CF93DF93CDB7DEB7CA1BDB0B0FB6C0
:10120000F894DEBF0FBECDBF09942A88398848887C
:101210005F846E847D848C849B84AA84B984C88412
:10122000DF80EE80FD800C811B81AA81B981CE0F09
:10123000D11D0FB6F894DEBF0FBECDBFED010895EE
:101240000E9434090C94AF080E94A80858F00E942C
:10125000A10840F029F45F3F29F00C94980851113F
:101260000C94E3080C949E080E94C00868F399232C
:10127000B1F3552391F3951B550BBB27AA27621792
:101280007307840738F09F5F5F4F220F331F441F9F
:10129000AA1FA9F335D00E2E3AF0E0E832D09150D3
:1012A0005040E695001CCAF72BD0FE2F29D0660FC0
:1012B000771F881FBB1F261737074807AB07B0E803
:1012C00009F0BB0B802DBF01FF2793585F4F3AF009
:1012D0009E3F510578F00C9498080C94E3085F3F0A
:1012E000E4F3983ED4F3869577956795B795F7958F
:1012F0009F5FC9F7880F911D9695879597F9089577
:10130000E1E0660F771F881FBB1F62177307840712
:10131000BA0720F0621B730B840BBA0BEE1F88F721
:10132000E09508950E9499096894B1110C94E3081E
:1013300008950E94C80888F09F5798F0B92F992700
:10134000B751B0F0E1F0660F771F881F991F1AF0B0
:10135000BA95C9F714C0B13091F00E94E208B1E02B
:1013600008950C94E208672F782F8827B85F39F02A
:10137000B93FCCF3869577956795B395D9F73EF449
:1013800090958095709561957F4F8F4F9F4F0895F1
:10139000A1E21A2EAA1BBB1BFD010DC0AA1FBB1F79
:1013A000EE1FFF1FA217B307E407F50720F0A21BEB
:1013B000B30BE40BF50B661F771F881F991F1A9458
:1013C00069F760957095809590959B01AC01BD0182
:1013D000CF010895EE0FFF1F0590F491E02D0994C1
:1013E0000F931F93CF93DF938230910510F482E027
:1013F00090E0E091E501F091E60120E030E0A0E02E
:10140000B0E0309719F14081518102811381481772
:101410005907C8F08417950769F4109731F01296B0
:101420000C93129713961C9327C00093E501109319
:10143000E60122C02115310519F04217530718F4AF
:101440009A01BD01EF01DF01F801DBCF2115310564
:10145000F9F0281B390B2430310580F48A819B81F7
:101460006115710521F0FB019383828304C0909381
:10147000E6018093E501FE01329644C0FE01E20FD1
:10148000F31F8193919322503109398328833AC005
:101490002091E3013091E401232B41F420910501D7
:1014A000309106013093E4012093E3012091030180
:1014B000309104012115310541F42DB73EB740911B
:1014C000070150910801241B350BE091E301F091D5
:1014D000E401E217F307A0F42E1B3F0B281739078E
:1014E00078F0AC014E5F5F4F2417350748F04E0F80
:1014F0005F1F5093E4014093E3018193919302C0F5
:10150000E0E0F0E0CF01DF91CF911F910F910895BE
:10151000CF93DF93009709F481C0FC0132971382C7
:101520001282A091E501B091E601109781F420812B
:101530003181820F931F2091E3013091E40128173C
:10154000390751F5F093E401E093E30167C0ED0141
:1015500020E030E0CE17DF0740F44A815B819E0136
:1015600041155105F1F0EA01F5CFD383C2834081E3
:101570005181840F951FC817D90759F48881998123
:10158000840F951F0296918380838A819B81938328
:1015900082832115310529F4F093E601E093E501FA
:1015A0003DC0E901FB83EA8349915991C40FD51FDE
:1015B000EC17FD0761F480819181840F951F0296DD
:1015C000E90199838883828193819B838A83E0E008
:1015D000F0E012968D919C911397009719F0FD0100
:1015E000DC01F7CF8D919C9111979D012E5F3F4FAC
:1015F000820F931F2091E3013091E40128173907EE
:1016000069F4309729F41092E6011092E50102C0C6
:1016100013821282B093E401A093E301DF91CF9192
:101620000895A0E0B0E0E7E1FBE00C94ED08EC01E8
:10163000009721F4CB010E94F009B4C0FC01E60F31
:10164000F71F9C0122503109E217F30708F4A8C0E4
:10165000D9010D911C91119706171707B0F00530AD
:10166000110508F49BC0C80104978617970708F472
:1016700095C002501109061B170B019311936D932E
:101680007C93CF010E94880A89C05B01A01AB10A2D
:101690004C01800E911EA091E501B091E601612CF4
:1016A000712CE12CF12C109709F446C08D919C917E
:1016B0001197A815B905B1F56C0142E0C40ED11C13
:1016C000CA14DB0478F14C018A189B08640142E0DB
:1016D000C40ED11C1296BC9012971396AC91B5E033
:1016E000CB16D10440F0B282A38391828082D901CB
:1016F0006D937C9309C00E5F1F4F800F911FF901FE
:1017000091838083EB2DFA2FE114F10431F0D7019E
:101710001396FC93EE93129741C0F093E601E09389
:10172000E5013CC06816790608F43C017D0112967B
:101730000D90BC91A02DB7CF8091E3019091E40171
:1017400088169906E1F466167706C8F480910301BD
:1017500090910401009741F48DB79EB74091070125
:1017600050910801841B950BE817F907C8F4F09312
:10177000E401E093E301F901718360830FC0CB01C1
:101780000E94F0097C01009759F0A801BE010E9457
:10179000DC0BCE010E94880AC70104C0CE0102C042
:1017A00080E090E0CDB7DEB7EEE00C94090981E06F
:1017B00090E0F8940C94EC0BFB01DC0102C001906A
:1017C0000D9241505040D8F70895FB01DC01019083
:1017D0000D920020E1F7089510E0C2E6D0E004C0C9
:1017E000FE010E94EA092196C336D107C9F7F89491
:0217F000FFCF29
:1017F2000132000000E7018000000000005702C033
:1018020001EE01A4021F02FD0111020D0A00646132
:041812006C65000001
:107E0000112484B714BE81FFF0D085E080938100F7
:107E100082E08093C00088E18093C10086E0809377
:107E2000C20080E18093C4008EE0C9D0259A86E02C
:107E300020E33CEF91E0309385002093840096BBD3
:107E4000B09BFECF1D9AA8958150A9F7CC24DD24C4
:107E500088248394B5E0AB2EA1E19A2EF3E0BF2EE7
:107E6000A2D0813461F49FD0082FAFD0023811F036
:107E7000013811F484E001C083E08DD089C08234E0
:107E800011F484E103C0853419F485E0A6D080C0E4
:107E9000853579F488D0E82EFF2485D0082F10E0AE
:107EA000102F00270E291F29000F111F8ED06801E7
:107EB0006FC0863521F484E090D080E0DECF843638
:107EC00009F040C070D06FD0082F6DD080E0C81688
:107ED00080E7D80618F4F601B7BEE895C0E0D1E017
:107EE00062D089930C17E1F7F0E0CF16F0E7DF06D8
:107EF00018F0F601B7BEE89568D007B600FCFDCFD4
:107F0000A601A0E0B1E02C9130E011968C91119780
:107F100090E0982F8827822B932B1296FA010C0160
:107F200087BEE89511244E5F5F4FF1E0A038BF0790
:107F300051F7F601A7BEE89507B600FCFDCF97BE46
:107F4000E89526C08437B1F42ED02DD0F82E2BD052
:107F50003CD0F601EF2C8F010F5F1F4F84911BD097
:107F6000EA94F801C1F70894C11CD11CFA94CF0C13
:107F7000D11C0EC0853739F428D08EE10CD085E9AC
:107F80000AD08FE07ACF813511F488E018D01DD067
:107F900080E101D065CF982F8091C00085FFFCCF94
:107FA0009093C60008958091C00087FFFCCF809118
:107FB000C00084FD01C0A8958091C6000895E0E648
:107FC000F0E098E1908380830895EDDF803219F02E
:107FD00088E0F5DFFFCF84E1DECF1F93182FE3DFCA
:107FE0001150E9F7F2DF1F91089580E0E8DFEE27F6
:047FF000FF270994CA
:027FFE00040479
:0400000300007E007B
:00000001FF
