:100000000C9463000C948B000C948B000C948B006C
:100010000C948B000C948B000C948B000C948B0034
:100020000C948B000C9410060C948B000C948B0099
:100030000C948B000C948B000C948B000C948B0014
:100040000C946E050C948B000C94DE050C94B80592
:100050000C948B000C948B000C948B000C948B00F4
:100060000C948B000C948B000000000024002700EF
:100070002A0000000000250028002B0000000000DE
:1000800023002600290004040404040404040202DA
:100090000202020203030303030301020408102007
:1000A0004080010204081020010204081020000012
:1000B0000008000201000003040700000000000027
:1000C00000007606320811241FBECFEFD8E0DEBF55
:1000D000CDBF21E0AEE1B1E001C01D92A53EB20767
:1000E000E1F711E0A0E0B1E0EEE1F9E102C0059036
:1000F0000D92AE31B107D9F710E0C2E6D0E004C0EE
:100100002197FE010E94700AC136D107C9F70E94EB
:10011000B1060C94820C0C940000E0913E01F09129
:100120003F010190F081E02D682F8EE391E009946A
:10013000CF92DF92EF92FF920F931F93CF93DF93B3
:100140006C017A018B01C0E0D0E0CE15DF0589F0AB
:10015000D8016D918D01D601ED91FC910190F08156
:10016000E02DC6010995892B11F47E0102C021966C
:10017000ECCFC701DF91CF911F910F91FF90EF90CE
:10018000DF90CF900895089580E090E00895FC01FD
:10019000538D448D252F30E0842F90E0821B930BEC
:1001A000541710F0CF96089501970895FC01918D92
:1001B000828D981761F0828DDF01A80FB11D5D96C9
:1001C0008C91928D9F5F9F73928F90E008958FEF37
:1001D0009FEF0895FC01918D828D981731F0828DEB
:1001E000E80FF11D858D90E008958FEF9FEF089542
:1001F000FC01918D228D892F90E0805C9F4F821BA6
:1002000091098F73992708958EE391E00E94F80079
:1002100021E0892B09F420E0822F0895FC01848DD0
:10022000DF01A80FB11DA35ABF4F2C91848D90E020
:1002300001968F739927848FA689B7892C93A089FB
:10024000B1898C9180648C93938D848D981306C0B2
:100250000288F389E02D80818F7D80830895EF925D
:10026000FF920F931F93CF93DF93EC0181E0888F70
:100270009B8D8C8D981305C0E889F989808185FD57
:1002800024C0F62E0B8D10E00F5F1F4F0F73112748
:10029000E02E8C8DE8120CC00FB607FCFACFE8896F
:1002A000F989808185FFF5CFCE010E940E01F1CF43
:1002B0008B8DFE01E80FF11DE35AFF4FF0820B8F8B
:1002C000EA89FB898081806207C0EE89FF896083AB
:1002D000E889F98980818064808381E090E0DF9102
:1002E000CF911F910F91FF90EF900895CF93DF93DF
:1002F000EC01888D8823C9F0EA89FB89808185FD1E
:1003000005C0A889B9898C9186FD0FC00FB607FC7E
:10031000F5CF808185FFF2CFA889B9898C9185FFBF
:10032000EDCFCE010E940E01E7CFDF91CF9108956E
:10033000833081F028F4813099F08230A1F0089563
:100340008730A9F08830B9F08430D1F480918000F2
:100350008F7D03C0809180008F7780938000089507
:1003600084B58F7702C084B58F7D84BD0895809158
:10037000B0008F7703C08091B0008F7D8093B00074
:100380000895CF93DF93282F30E0F901E255FF4F16
:100390008491F901E656FF4FD491F901EA57FF4FD6
:1003A000C491CC2391F081110E949801EC2FF0E0D0
:1003B000EE0FFF1FE458FF4FA591B491EC91ED2390
:1003C00081E090E021F480E002C080E090E0DF91E5
:1003D000CF9108951F93CF93DF93282F30E0F90139
:1003E000E255FF4F8491F901E656FF4FD491F90190
:1003F000EA57FF4FC491CC23C9F0162F81110E94F8
:100400009801EC2FF0E0EE0FFF1FEE58FF4FA59183
:10041000B4918FB7F894111105C09C91ED2FE09520
:10042000E92302C0EC91ED2BEC938FBFDF91CF91CC
:100430001F910895CF93DF9390E0FC01E656FF4FA4
:100440002491FC01EA57FF4F8491882361F190E0E9
:10045000880F991FFC01E859FF4FC591D491FC0109
:10046000EE58FF4FA591B491611109C09FB7F89460
:100470008881209582238883EC912E230BC06230E3
:1004800061F49FB7F8943881822F80958323888305
:10049000EC912E2B2C939FBF06C08FB7F894E88168
:1004A0002E2B28838FBFDF91CF9108951F93CF9379
:1004B000DF93182FEB0161E00E941A02209711F4DC
:1004C00060E004C0CF3FD10539F461E0812FDF91B6
:1004D000CF911F910C94EA01E12FF0E0E255FF4F1C
:1004E000E491E330F9F048F4E130B9F0E230A1F5FD
:1004F00084B5806284BDC8BD34C0E730E9F0E8301F
:1005000019F1E43049F58091800080628093800089
:10051000D0938B00C0938A0024C084B5806884BDCA
:10052000C7BD1FC080918000806880938000D093F9
:100530008900C093880015C08091B00080688093C6
:10054000B000C093B3000DC08091B0008062809372
:10055000B000C093B40005C0C038D1050CF0B5CFD1
:10056000AFCFDF91CF911F9108958E3008F08E505C
:100570008770806480937C0080917A00806480938F
:100580007A0080917A0086FDFCCF809178002091DE
:10059000790090E0922B0895109220011092210191
:1005A000109222011092230110921F0180912A01C2
:1005B00090912B018093B200E0E7F0E080818160B0
:1005C0008083089580913401882361F010922C017A
:1005D00060E070E089E00E945602809170008E7F9A
:1005E000809370000895CF93C82F0E94C10161E0ED
:1005F000892B09F060E08C2FCF910C94EA018F9247
:100600009F92AF92BF920F931F93CF93DF93CDB77B
:10061000DEB7A1970FB6F894DEBF0FBECDBF19A20B
:10062000423008F44AE08E010F5D1F4F842E912C5A
:10063000A12CB12CA50194010E944E0AE62FB9010C
:10064000CA0101501109EA3014F4E05D01C0E95C0F
:10065000D801EC93232B242B252B61F701151105D1
:1006600071F0F80101900020E9F73197AF01401BCC
:10067000510BB8018EE391E00E94980002C080E027
:1006800090E0A1960FB6F894DEBF0FBECDBFDF910C
:10069000CF911F910F91BF90AF909F908F90089531
:1006A000CF92DF92EF92FF92CF93DF936C01990F7D
:1006B000EE08FF08F7FE17C08DE20E948D00EC01E6
:1006C00066277727CB016C197D098E099F094AE0BF
:1006D0000E94FF028C0F9D1FDF91CF91FF90EF9042
:1006E000DF90CF9008954AE0C701B601DF91CF9126
:1006F000FF90EF90DF90CF900C94FF02CF92DF92AB
:10070000EF92FF92CF93DF936C01990FEE08FF08F1
:10071000F7FE12C08DE20E948D00EC01662777275C
:10072000CB016C197D098E099F094AE00E94FF02E6
:100730007C01EC0EFD1E06C04AE0C701B6010E9416
:10074000FF027C0142E050E06BE171E08EE391E05A
:100750000E9498008E0D9F1DDF91CF91FF90EF902A
:10076000DF90CF9008950E946D0C0F931F93CF934D
:10077000DF93EC0188819981009729F02A813B81E0
:100780002617370788F48B016F5F7F4F0E94A30BFA
:10079000009761F0998388831B830A832C813D81B4
:1007A000232B11F4FC01108281E001C080E0DF9175
:1007B000CF911F910F910895EF92FF920F931F9386
:1007C000CF93DF93EC017B018A01BA010E94B5034C
:1007D0002881398181110DC02115310519F0C90118
:1007E0000E940B0B198218821D821C821B821A82A6
:1007F00006C01D830C83B701C9010E947B0CCE018A
:10080000DF91CF911F910F91FF90EF900895EF929C
:10081000FF920F931F93CF93DF9300D0CDB7DEB736
:1008200001E08EE391E00E94F800892B09F447C1B2
:100830008EE391E00E94D600182F80913401882326
:1008400081F380911E01882309F450C0133259F5B9
:1008500010921E018091DB019091DC01009719F04C
:100860000E94380803C060E070E0CB010E94760867
:1008700020E030EC4FE754E40E94B10820E030E083
:100880004AEF53E40E94A6090E94180A70930201DD
:100890006093010140E050E06DE171E08BED91E08B
:1008A0000E94DC03BECF19831A82E090DF01F09032
:1008B000E0018FEFE81AF80AB7018BED91E00E9492
:1008C000B503882399F02091DB013091DC01809100
:1008D000DF019091E001BE016F5F7F4F820F931F98
:1008E0000E947B0CF092E001E092DF01123509F4E6
:1008F000ADC094F4193409F447C03CF4113409F440
:1009000061C0173409F47FC08CCF1F3409F44BC089
:10091000103509F466C085CF153569F12CF513350E
:1009200009F490C0143509F07CCF8EE00E94B50226
:10093000BC01990F880B990B0E94760820E030E0EB
:1009400048EC52E40E94B10820E030E040EA50E474
:100950000E94B10820E030EC4FE754E40E94A60961
:100960000E94180ACB01A8C01A3559F0133709F0B4
:1009700058CF80E168C08091330180278093330194
:1009800050CF00931E014DCF80913301882309F48D
:1009900048CF8DE090E00E94F302809132018027E1
:1009A000809332013ECF80913301882309F439CFFF
:1009B0008CE090E00E94F3028091310180278093C7
:1009C00031012FCF80913301882309F42ACF8BE0A6
:1009D00090E00E94F30280913001802780933001E3
:1009E00020CF80912F01802780932F01882319F039
:1009F00066EE70E004C060912D0170912E018AE0D6
:100A00000E9456020ECF10910001112331F061E0D7
:100A100088E00E94EA0160E005C060E088E00E9492
:100A2000EA0161E087E00E94EA01102710930001CB
:100A300060E870E089E00E94560200932C010E9459
:100A4000CC02EFCE8FE00E94B50236C08EE00E944D
:100A5000B502BC01990F880B990B0E94760820E023
:100A600030E048EC52E40E94B10820E030E040EA77
:100A700050E40E94B10820E030EC4FE754E40E94BB
:100A8000A6090E94180ACB010E94500380E20E942E
:100A90008D008091320190E00E94500380E20E941C
:100AA0008D008091310190E00E94500380E20E940D
:100AB0008D008091300190E00E947E03B2CE0F90B5
:100AC0000F90DF91CF911F910F91FF90EF900895BC
:100AD0000E94040181110C94070408951F920F9243
:100AE0000FB60F9211242F933F938F939F93AF9341
:100AF000BF9380913A0190913B01A0913C01B0914C
:100B00003D013091390123E0230F2D3720F4019668
:100B1000A11DB11D05C026E8230F0296A11DB11D20
:100B20002093390180933A0190933B01A0933C01BB
:100B3000B0933D018091350190913601A09137012C
:100B4000B09138010196A11DB11D8093350190939C
:100B50003601A0933701B0933801BF91AF919F91B7
:100B60008F913F912F910F900FBE0F901F9018956E
:100B70001F920F920FB60F9211242F933F934F9312
:100B80005F936F937F938F939F93AF93BF93EF93F5
:100B9000FF938EE391E00E940E01FF91EF91BF91D0
:100BA000AF919F918F917F916F915F914F913F9105
:100BB0002F910F900FBE0F901F9018951F920F92BC
:100BC0000FB60F9211242F938F939F93EF93FF9360
:100BD000E0914E01F0914F018081E0915401F0913C
:100BE000550182FD12C09081809157018F5F8F73F4
:100BF00020915801821751F0E0915701F0E0E25C3A
:100C0000FE4F958F8093570101C08081FF91EF9136
:100C10009F918F912F910F900FBE0F901F9018955D
:100C20001F920F920FB60F9211242F933F934F9361
:100C30005F936F937F938F939F93AF93BF93EF9344
:100C4000FF9380912A0190912B018093B2008091B3
:100C5000200190912101A0912201B09123010196E0
:100C6000A11DB11D8093200190932101A093220129
:100C7000B093230140912001509121016091220104
:100C8000709123018091260190912701A091280164
:100C9000B0912901481759076A077B07B0F0809186
:100CA0001F01811112C081E080931F011092200169
:100CB000109221011092220110922301E09124014F
:100CC000F0912501099510921F01FF91EF91BF91BD
:100CD000AF919F918F917F916F915F914F913F91D4
:100CE0002F910F900FBE0F901F901895EEE3F1E03B
:100CF0001382128288EE93E0A0E0B0E084839583B3
:100D0000A683B7838DE091E09183808385EC90E0AA
:100D10009587848784EC90E09787868780EC90E0C5
:100D2000918B808B81EC90E0938B828B82EC90E0B6
:100D3000958B848B86EC90E0978B868B118E128E30
:100D4000138E148EEBEDF1E0118210821382128269
:100D50001582148240E050E06DE171E0CF010C9407
:100D6000DC03789484B5826084BD84B5816084BDE1
:100D700085B5826085BD85B5816085BD80916E0039
:100D8000816080936E00109281008091810082606A
:100D900080938100809181008160809381008091A7
:100DA00080008160809380008091B1008460809396
:100DB000B1008091B00081608093B00080917A0092
:100DC000846080937A0080917A00826080937A00B8
:100DD00080917A00816080937A0080917A008068A7
:100DE00080937A001092C10061E08DE00E941A02A7
:100DF00061E08CE00E941A0261E08BE00E941A021E
:100E000061E089E00E941A0261E08AE00E941A0211
:100E100061E085E00E941A0261E085E00E941A020A
:100E200061E088E00E941A0261E087E00E941A02F5
:100E300060E084E00E941A0260E083E00E941A02EF
:100E400060E082E00E941A0261E084E00E94EA0110
:100E500061E083E00E94EA0161E082E00E94EA0131
:100E6000E0914E01F0914F0182E08083E0914A01D0
:100E7000F0914B011082E0914C01F0914D018FEC0B
:100E8000808310925601E0915201F091530186E067
:100E90008083E0915001F0915101808180618083D5
:100EA000E0915001F0915101808188608083E09150
:100EB0005001F0915101808180688083E091500160
:100EC000F091510180818F7D808368EC70E08BED23
:100ED00091E00E94B503809170008E7F8093700036
:100EE0008091B0008C7F8093B0008091B100877FAB
:100EF0008093B1008091B6008F7D8093B600809181
:100F000070008D7F809370008091B1008460809329
:100F1000B1008091B1008C7F8093B10086E090E0B9
:100F200090932B0180932A0188EE93E0A0E0B0E03B
:100F30008093260190932701A0932801B093290163
:100F400082EE92E090932501809324010E94CC02CE
:100F5000C1E000E410E080E8E82EF12C84E00E947B
:100F6000C101892B31F0C093340161E085E00E941A
:100F7000EA0180913401882309F463C08091330130
:100F800081113DC083E00E94C101892B09F45CC03E
:100F90008FE00E94B502811592400CF055C061E0CF
:100FA0008DE00E94EA01C093320182E00E94C101FB
:100FB000892B09F450C080E10E94B502811592404E
:100FC0000CF049C061E08CE00E94EA01C09331015D
:100FD0008EE00E94B5022091010130910201281794
:100FE00039073CF461E08BE00E94EA01C0933001D4
:100FF00006C060E08BE00E94EA011092300180910F
:101000002F0181111EC060912D0170912E018AE087
:101010000E94560280912C01882329F0F0922E0123
:10102000E0922D010EC082E00E94C101892B29F0BF
:1010300010932E0100932D0104C010922E011092E6
:101040002D010E9468058ACF60E08DE00E94EA01D0
:1010500010923201AACF60E08CE00E94EA01109267
:101060003101B6CF8091DB019091DC010C940B0B28
:101070001F93FC0199278827BC01E8941191103235
:10108000E9F3193010F01E30C8F31B3251F01D3255
:1010900049F4689406C00E945F08610F711D811DAC
:1010A000911D119110531A30B0F33EF49095809534
:1010B000709561957F4F8F4F9F4F1F910895592FC6
:1010C000482F372F262F660F771F881F991F660F0F
:1010D000771F881F991F620F731F841F951F660F4C
:1010E000771F881F991F0895E89409C097FB3EF465
:1010F00090958095709561957F4F8F4F9F4F992365
:10110000A9F0F92F96E9BB279395F69587957795E2
:101110006795B795F111F8CFFAF4BB0F11F460FFA2
:101120001BC06F5F7F4F8F4F9F4F16C0882311F0FA
:1011300096E911C0772321F09EE8872F762F05C00E
:10114000662371F096E8862F70E060E02AF09A95A9
:10115000660F771F881FDAF7880F9695879597F99E
:1011600008950E94C4080C9435090E94270938F09C
:101170000E942E0920F0952311F00C941E090C9466
:10118000240911240C9469090E94460970F3959F63
:10119000C1F3950F50E0551F629FF001729FBB276E
:1011A000F00DB11D639FAA27F00DB11DAA1F649F0A
:1011B0006627B00DA11D661F829F2227B00DA11DBD
:1011C000621F739FB00DA11D621F839FA00D611D43
:1011D000221F749F3327A00D611D231F849F600D64
:1011E000211D822F762F6A2F11249F5750409AF08D
:1011F000F1F088234AF0EE0FFF1FBB1F661F771F19
:10120000881F91505040A9F79E3F510580F00C94E3
:101210001E090C9469095F3FE4F3983ED4F3869568
:1012200077956795B795F795E7959F5FC1F7FE2B83
:10123000880F911D9695879597F9089597F99F675F
:1012400080E870E060E008959FEF80EC089500244E
:101250000A941616170618060906089500240A941B
:1012600012161306140605060895092E0394000CA1
:1012700011F4882352F0BB0F40F4BF2B11F460FF30
:1012800004C06F5F7F4F8F4F9F4F089557FD905859
:10129000440F551F59F05F3F71F04795880F97FB3A
:1012A000991F61F09F3F79F08795089512161306F4
:1012B0001406551FF2CF4695F1DF08C01616170623
:1012C0001806991FF1CF8695710561050894089558
:1012D000E894BB2766277727CB0197F908952F92CB
:1012E0003F924F925F926F927F928F929F92AF92B6
:1012F000BF92CF92DF92EF92FF920F931F93CF9303
:10130000DF93CDB7DEB7CA1BDB0B0FB6F894DEBF99
:101310000FBECDBF09942A88398848885F846E84BF
:101320007D848C849B84AA84B984C884DF80EE8009
:10133000FD800C811B81AA81B981CE0FD11D0FB612
:10134000F894DEBF0FBECDBFED0108950E94BA092B
:101350000C9435090E942E0958F00E94270940F08C
:1013600029F45F3F29F00C941E0951110C9469096E
:101370000C9424090E94460968F39923B1F355237C
:1013800091F3951B550BBB27AA2762177307840798
:1013900038F09F5F5F4F220F331F441FAA1FA9F32E
:1013A00035D00E2E3AF0E0E832D091505040E6951C
:1013B000001CCAF72BD0FE2F29D0660F771F881F7D
:1013C000BB1F261737074807AB07B0E809F0BB0B70
:1013D000802DBF01FF2793585F4F3AF09E3F510584
:1013E00078F00C941E090C9469095F3FE4F3983E71
:1013F000D4F3869577956795B795F7959F5FC9F76D
:10140000880F911D9695879597F90895E1E0660FED
:10141000771F881FBB1F621773078407BA0720F066
:10142000621B730B840BBA0BEE1F88F7E0950895CF
:101430000E941F0A6894B1110C94690908950E94D2
:101440004E0988F09F5798F0B92F9927B751B0F0FF
:10145000E1F0660F771F881F991F1AF0BA95C9F738
:1014600014C0B13091F00E946809B1E008950C9465
:101470006809672F782F8827B85F39F0B93FCCF318
:10148000869577956795B395D9F73EF490958095B5
:10149000709561957F4F8F4F9F4F0895A1E21A2E4F
:1014A000AA1BBB1BFD010DC0AA1FBB1FEE1FFF1F08
:1014B000A217B307E407F50720F0A21BB30BE40B58
:1014C000F50B661F771F881F991F1A9469F760959F
:1014D0007095809590959B01AC01BD01CF01089559
:1014E000EE0FFF1F0590F491E02D0994CF93DF9349
:1014F0008230910510F482E090E0E091E301F091F8
:10150000E40120E030E0C0E0D0E0309711F140810C
:10151000518148175907C0F04817590761F4828173
:101520009381209719F09B838A832BC09093E401C9
:101530008093E30126C02115310519F042175307A6
:1015400018F49A01BE01DF01EF010280F381E02D62
:10155000DCCF2115310509F1281B390B2430310569
:1015600090F412968D919C9113976115710521F05D
:10157000FB019383828304C09093E4018093E30191
:10158000FD01329644C0FD01E20FF31F8193919358
:10159000225031092D933C933AC02091E1013091C2
:1015A000E201232B41F42091050130910601309393
:1015B000E2012093E1012091030130910401211502
:1015C000310541F42DB73EB7409107015091080114
:1015D000241B350BE091E101F091E201E217F307E2
:1015E000A0F42E1B3F0B2817390778F0AC014E5F93
:1015F0005F4F2417350748F04E0F5F1F5093E201ED
:101600004093E1018193919302C0E0E0F0E0CF01CB
:10161000DF91CF9108950F931F93CF93DF9300979E
:1016200009F48CC0FC013297138212820091E3010D
:101630001091E4010115110581F420813181820F9F
:10164000931F2091E1013091E2012817390779F5C4
:10165000F093E201E093E10171C0D80140E050E075
:10166000AE17BF0750F412962D913C911397AD0120
:101670002115310509F1D901F3CF9D01DA01338339
:10168000228360817181860F971F8217930769F407
:10169000EC0128813981260F371F2E5F3F4F3183A0
:1016A00020838A819B8193838283452B29F4F09345
:1016B000E401E093E30142C01396FC93EE9312978A
:1016C000ED01499159919E01240F351FE217F3074F
:1016D00071F480819181840F951F029611969C93DD
:1016E0008E938281938113969C938E931297E0E060
:1016F000F0E0D80112968D919C911397009719F004
:10170000F8018C01F6CF8D919C9198012E5F3F4F8F
:10171000820F931F2091E1013091E20128173907D0
:1017200069F4309729F41092E4011092E30102C0A9
:10173000138212821093E2010093E101DF91CF91B5
:101740001F910F910895A0E0B0E0E9EAFBE00C944E
:101750007309EC01009721F4CB010E94760AB8C00E
:10176000FC01E60FF71F9C0122503109E217F30735
:1017700008F4ACC0D9010D911C91119706171707F9
:10178000B0F00530110508F49FC0C8010497861712
:10179000970708F499C002501109061B170B019313
:1017A00011936D937C93CF010E940B0B8DC05B0155
:1017B000A01AB10A4C01800E911EA091E301B091D4
:1017C000E40140E050E0E12CF12C109709F44AC00C
:1017D000A815B905D1F56D907C901197630182E051
:1017E000C80ED11CCA14DB0480F1A3014A195B099D
:1017F0006A0182E0C80ED11C1296BC901297139613
:10180000AC91B5E0CB16D10440F0B282A3835183F2
:101810004083D9016D937C930AC00E5F1F4FC301B3
:10182000800F911FF90191838083EB2DFA2FE11432
:10183000F10431F0D7011396FC93EE93129744C054
:10184000F093E401E093E3013FC08D919C911197E7
:101850004817590708F4AC017D0112960D90BC9110
:10186000A02DB3CF8091E1019091E20188159905F7
:10187000E1F446175707C8F48091030190910401E1
:10188000009741F48DB79EB7409107015091080130
:10189000841B950BE817F907C8F4F093E201E09375
:1018A000E101F901718360830FC0CB010E94760AC8
:1018B0007C01009759F0A801BE010E94720CCE0174
:1018C0000E940B0BC70104C0CE0102C080E090E073
:1018D000CDB7DEB7EEE00C948F0981E090E0F8948C
:1018E0000C94820CFB01DC0102C001900D9241506E
:1018F0005040D8F70895FB01DC0101900D920020C3
:10190000E1F7089510E0C2E6D0E004C0FE010E94B5
:0E191000700A2196C336D107C9F7F894FFCFAD
:10191E000132000000E5018000000000002F019858
:0E192E0000C7007601F800D600EA000D0A009E
:107800000C94343C0C94513C0C94513C0C94513CE1
:107810000C94513C0C94513C0C94513C0C94513CB4
:107820000C94513C0C94513C0C94513C0C94513CA4
:107830000C94513C0C94513C0C94513C0C94513C94
:107840000C94513C0C94513C0C94513C0C94513C84
:107850000C94513C0C94513C0C94513C0C94513C74
:107860000C94513C0C94513C11241FBECFEFD8E036
:10787000DEBFCDBF11E0A0E0B1E0ECE9FFE702C060
:1078800005900D92A230B107D9F712E0A2E0B1E065
:1078900001C01D92AD30B107E1F70E942D3D0C945F
:1078A000CC3F0C94003C982F959595959595959582
:1078B000905D8F708A307CF0282F295A8091C0000B
:1078C00085FFFCCF9093C6008091C00085FFFCCF60
:1078D0002093C6000895282F205DF0CF982F809127
:1078E000C00085FFFCCF9093C6000895EF92FF92F1
:1078F0000F931F93EE24FF2487018091C00087FD22
:1079000017C00894E11CF11C011D111D81E4E8164B
:1079100082E4F8068FE0080780E0180770F3E09132
:107920000401F091050109958091C00087FFE9CF1E
:107930008091C6001F910F91FF90EF9008950E94D3
:10794000763C982F8091C00085FFFCCF9093C600B5
:1079500091362CF490330CF09053892F089597555D
:10796000892F08951F930E949F3C182F0E949F3CCF
:107970001295107F810F1F9108951F93182F882350
:1079800021F00E94763C1150E1F71F9108951F935A
:10799000182F0E94763C803249F0809103018F5F5E
:1079A000809303018530C1F01F9108958091C0003C
:1079B00085FFFCCF84E18093C6008091C00085FFE5
:1079C000FCCF1093C6008091C00085FFFCCF80E102
:1079D0008093C6001F910895E0910401F091050184
:1079E00009951F9108950E94763C803241F0809164
:1079F00003018F5F80930301853081F008958091AA
:107A0000C00085FFFCCF84E18093C6008091C00058
:107A100085FFFCCF80E18093C6000895E0910401CA
:107A2000F09105010995089540E951E08823A1F0FE
:107A30002D9A28EE33E0FA013197F1F721503040CA
:107A4000D1F72D9828EE33E0FA013197F1F7215064
:107A50003040D1F7815061F708953F924F925F9285
:107A60006F927F928F929F92AF92BF92CF92DF924E
:107A7000EF92FF920F931F93CF93DF93000080E16B
:107A80008093C4001092C50088E18093C10086E015
:107A90008093C2005098589A259A81E00E94143D24
:107AA00024E1F22E9EE1E92E85E9D82E0FE0C02ECA
:107AB00010E1B12EAA24A394B1E49B2EA6E58A2E50
:107AC000F2E57F2EE0E26E2E79E4572E63E5462E36
:107AD00050E5352E0E94763C8033B1F18133B9F107
:107AE000803409F46FC0813409F476C0823409F41B
:107AF00085C0853409F488C0803531F1823521F1A3
:107B0000813511F1853509F485C0863509F48DC0BC
:107B1000843609F496C0843709F403C1853709F423
:107B200072C1863709F466C0809103018F5F80932C
:107B30000301853079F6E0910401F0910501099582
:107B40000E94763C803351F60E94F33CC3CF0E94E2
:107B5000763C803249F78091C00085FFFCCFF092DF
:107B6000C6008091C00085FFFCCF9092C600809136
:107B7000C00085FFFCCF8092C6008091C00085FFC9
:107B8000FCCF7092C6008091C00085FFFCCF609250
:107B9000C6008091C00085FFFCCF5092C600809146
:107BA000C00085FFFCCF4092C6008091C00085FFD9
:107BB000FCCF3092C6008091C00085FFFCCFB09210
:107BC000C60088CF0E94763C863808F4BDCF0E945C
:107BD000763C0E94F33C7ECF0E94763C803809F4CC
:107BE0009CC0813809F40BC1823809F43CC1883942
:107BF00009F48FC080E00E94C73C6CCF84E10E94F2
:107C0000BD3C0E94F33C66CF85E00E94BD3C0E94D3
:107C1000F33C60CF0E94763C809306010E94763C44
:107C2000809307010E94F33C55CF0E94763C80333D
:107C300009F41DC183E00E94BD3C80E00E94C73C66
:107C400049CF0E94763C809309020E94763C809343
:107C5000080280910C028E7F80930C020E94763C79
:107C6000853409F415C18091080290910902892B8D
:107C700089F000E010E00E94763CF801E85FFE4FDA
:107C800080830F5F1F4F80910802909109020817AF
:107C9000190788F30E94763C803209F045CF809125
:107CA0000C0280FF01C16091060170910701660F0F
:107CB000771F7093070160930601A0910802B091AD
:107CC00009021097C9F0E8E0F1E09B01AD014E0F09
:107CD0005F1FF999FECF32BD21BD819180BDFA9A17
:107CE000F99A2F5F3F4FE417F50799F76A0F7B1F4B
:107CF00070930701609306018091C00085FFFCCF5F
:107D0000F092C6008091C00085FFFCCFB092C60003
:107D1000E1CE83E00E94C73CDDCE82E00E94C73CFA
:107D2000D9CE0E94763C809309020E94763C8093D3
:107D300008028091060190910701880F991F909386
:107D40000701809306010E94763C853409F4A6C0A1
:107D500080910C028E7F80930C020E94763C8032D0
:107D600009F0B8CE8091C00085FFFCCFF092C6002C
:107D7000609108027091090261157105B9F140E046
:107D800050E080910C02A82FA170B82FB27011C0E2
:107D9000BB2309F45CC0E0910601F0910701319624
:107DA000F0930701E09306014F5F5F4F46175707B7
:107DB000E8F4AA2369F3F999FECF209106013091E6
:107DC000070132BD21BDF89A90B58091C00085FFB2
:107DD000FCCF9093C6002F5F3F4F30930701209355
:107DE00006014F5F5F4F4617570718F38091C00099
:107DF00085FDE5CE8091C00085FFF8CFE0CE81E023
:107E00000E94C73C67CE0E94763C803209F08CCE3F
:107E10008091C00085FFFCCFF092C6008091C00029
:107E200085FFFCCFE092C6008091C00085FFFCCFAB
:107E3000D092C6008091C00085FFFCCFC092C600E2
:107E40008091C00085FFFCCFB092C60043CEE09188
:107E50000601F091070194918091C00085FFFCCF4D
:107E60009093C6009CCF80E10E94C73C33CE0E9415
:107E7000763C0E94763C182F0E94763C112309F430
:107E800083C0113009F484C08FE00E94C73C22CE29
:107E900080910C02816080930C02E5CE80910C02EF
:107EA000816080930C0259CF809107018823880F4D
:107EB000880B8A2180930B02809106019091070123
:107EC000880F991F90930701809306018091080203
:107ED00080FF09C080910802909109020196909359
:107EE000090280930802F894F999FECF1127E091D6
:107EF0000601F0910701C8E0D1E08091080290915D
:107F00000902103091F40091570001700130D9F34B
:107F100003E000935700E89500915700017001308D
:107F2000D9F301E100935700E89509901990009169
:107F3000570001700130D9F301E000935700E89534
:107F40001395103498F011270091570001700130FB
:107F5000D9F305E000935700E895009157000170B0
:107F60000130D9F301E100935700E895329602976A
:107F700009F0C7CF103011F00296E5CF112480919F
:107F8000C00085FFB9CEBCCE8EE10E94C73CA2CD19
:0C7F900085E90E94C73C9ECDF894FFCF0D
:027F9C00800063
:040000030000780081
:00000001FF
